:100000000C9446000C9465000C9465000C946500FB
:100010000C9465000C9465000C9465000C946500CC
:100020000C9465000C9465000C9465000C946500BC
:100030000C9465000C945F030C9465000C946500AF
:100040000C9465000C9465000C9465000C9465009C
:100050000C9465000C9465000C9465000C9465008C
:100060000C9465000C9465000C9465000C9465007C
:100070000C9465000C9465000C9465000C9465006C
:100080000C9465000C9465000C94650011241FBE4F
:10009000CFEFD0E4DEBFCDBF11E0A0E0B1E0ECE3F4
:1000A000FDE000E00BBF02C007900D92AA32B1073D
:1000B000D9F711E0AAE2B1E001C01D92AA35B1075B
:1000C000E1F70E9423050C949C060C940000CF934A
:1000D000DF93CDB7DEB760970FB6F894DEBF0FBEE3
:1000E000CDBF6D837E838F83988729873A874B871F
:1000F0005C878D819E81AF81B88529853A854B8546
:100100005C85BC01CD010E947A06DC01CB018983AC
:100110009A83AB83BC8389819A81AB81BC81009730
:10012000A105B10529F489859A85AB85BC8511C0E7
:1001300089859A85AB85BC858D839E83AF83B8877F
:1001400089819A81AB81BC8189879A87AB87BC877B
:10015000D0CFBC01CD0160960FB6F894DEBF0FBEC4
:10016000CDBFDF91CF910895CF93DF9300D01F9241
:10017000CDB7DEB789836A834B838B81882379F07F
:100180008A81282F30E081E090E0022E02C0880FA3
:10019000991F0A94E2F7982F8981892B0FC08A81D1
:1001A000282F30E081E090E0022E02C0880F991FD6
:1001B0000A94E2F7982F9095898189230F900F90E8
:1001C0000F90DF91CF910895CF93DF9300D0CDB7FB
:1001D000DEB789836A838A81282F30E081E090E04E
:1001E000022E02C0880F991F0A94E2F7982F898186
:1001F00089230F900F90DF91CF910895CF93DF93D4
:10020000CDB7DEB781E00E942301DF91CF91089541
:10021000CF93DF93CDB7DEB784E690E00E94C301B1
:1002200088E30E94230186E00E9423018FE00E9460
:10023000230181E00E9423018AE090E00E94C30133
:10024000DF91CF910895CF93DF931F92CDB7DEB7A3
:1002500089838BE290E02BE230E0F90120812F7B53
:10026000FC01208388E290E02981FC0120838BE25D
:1002700090E02BE230E0F90120812068FC0120832E
:1002800000008BE290E02BE230E0F90120812F7733
:10029000FC01208382E090E00E94C3010F90DF9177
:1002A000CF910895CF93DF931F92CDB7DEB78983A7
:1002B0008BE290E02BE230E0F90120812064FC0128
:1002C000208388E290E02981FC0120838BE290E08A
:1002D0002BE230E0F90120812068FC01208300003E
:1002E0008BE290E02BE230E0F90120812F77FC01D6
:1002F000208381E090E00E94C3010F90DF91CF91B5
:100300000895CF93DF9300D000D0CDB7DEB78A83B6
:100310007C836B830E94FE008A81898311C089815E
:1003200091E0980F99830E94AD018B819C819C0183
:100330002F5F3F4F3C832B83FC0180810E94520141
:100340008B819C81FC018081882349F70F900F905D
:100350000F900F90DF91CF910895CF93DF931F926D
:10036000CDB7DEB789838981813128F489818158AD
:100370000E94230104C0898181550E9423010F90AE
:10038000DF91CF910895CF93DF9300D000D000D0BC
:10039000CDB7DEB79E838D831A82198214C01C826A
:1003A0001B8206C000008B819C8101969C838B83FD
:1003B0008B819C81873023E09207A4F389819A8105
:1003C00001969A83898329813A818D819E8128179C
:1003D00039072CF326960FB6F894DEBF0FBECDBFBB
:1003E000DF91CF9108950F931F93CF93DF93CDB7F4
:1003F000DEB708E210E040E064E08FEF0E94B40056
:10040000F8018083000086E290E0FC018081809505
:1004100060E00E94E400882311F081E3D3C086E20B
:1004200090E0FC018081809561E00E94E4008823D7
:1004300011F084E3C7C086E290E0FC0180818095E2
:1004400062E00E94E400882311F087E3BBC086E2EB
:1004500090E0FC018081809563E00E94E4008823A5
:1004600011F08AE2AFC008E210E040E065E08FEFF3
:100470000E94B400F8018083000086E290E0FC0155
:100480008081809560E00E94E400882311F082E37F
:1004900099C086E290E0FC018081809561E00E9435
:1004A000E400882311F085E38DC086E290E0FC0132
:1004B0008081809562E00E94E400882311F088E347
:1004C00081C086E290E0FC018081809563E00E941B
:1004D000E400882311F080E375C008E210E040E0FA
:1004E00066E08FEF0E94B400F8018083000086E28E
:1004F00090E0FC018081809560E00E94E400882308
:1005000011F083E35FC086E290E0FC01808180957A
:1005100061E00E94E400882311F086E353C086E284
:1005200090E0FC018081809562E00E94E4008823D5
:1005300011F089E347C086E290E0FC01808180955C
:1005400063E00E94E400882311F083E23BC008E2EC
:1005500010E040E067E08FEF0E94B400F801808374
:10056000000086E290E0FC018081809560E00E94BE
:10057000E400882311F081E425C086E290E0FC01CC
:100580008081809561E00E94E400882311F082E47C
:1005900019C086E290E0FC018081809562E00E94B3
:1005A000E400882311F083E40DC086E290E0FC01B2
:1005B0008081809563E00E94E400882311F084E448
:1005C00001C080E0DF91CF911F910F910895CF93EB
:1005D000DF9300D000D0CDB7DEB769837A838B83F9
:1005E0009C8389819A81AB81BC8180930001909327
:1005F0000101A0930201B093030180910001909149
:100600000101A0910201B091030180932B0190930D
:100610002C01A0932D01B0932E010F900F900F90FD
:100620000F90DF91CF910895CF93DF93CDB7DEB7D1
:1006300081E890E02BE0FC01208388E890E02DE742
:1006400030E0FC01318320838FE690E022E0FC0162
:10065000208384E890E0FC011182108280910001E7
:1006600090910101A0910201B091030180932B01AF
:1006700090932C01A0932D01B0932E018FE590E073
:100680002FE530E0F90120812068FC012083DF9113
:10069000CF910895CF93DF93CDB7DEB781E890E097
:1006A000FC011082DF91CF910895CF93DF93CDB7F6
:1006B000DEB781E080932A01DF91CF9108951F92E8
:1006C0000F9200905F000F92112400905B000F9238
:1006D0002F933F934F935F936F937F938F939F934A
:1006E000AF93BF93EF93FF93CF93DF93CDB7DEB775
:1006F00080912B0190912C01A0912D01B0912E01A0
:100700000197A109B10980932B0190932C01A0932B
:100710002D01B0932E0180912B0190912C01A0917D
:100720002D01B0912E010097A105B10591F40E9411
:1007300055038091000190910101A0910201B091B7
:10074000030180932B0190932C01A0932D01B09372
:100750002E01DF91CF91FF91EF91BF91AF919F91CA
:100760008F917F916F915F914F913F912F910F905A
:1007700000925B000F9000925F000F901F90189501
:10078000CF93DF9300D0CDB7DEB79A838983898179
:100790009A818130910591F0823091051CF4009787
:1007A00041F030C082309105A9F083309105F1F01D
:1007B00029C081E090E09A83898327C0809132012B
:1007C000803118F082E090E002C081E090E09A83EE
:1007D00089831BC080913201843218F083E090E05D
:1007E00002C082E090E09A8389830FC08091320139
:1007F000843318F080E090E002C083E090E09A83B8
:10080000898303C01A821982000089819A8181300C
:100810009105A1F0823091051CF4009751F0DFC0E2
:100820008230910509F460C08330910509F487C0D6
:10083000D6C01092330110923201D1C01092330110
:100840001FC080913201882F90E02FE030E0281BFC
:10085000390B80913301882F90E0820F931F2091F4
:100860003301222F30E02C5F3E4FF90120818C5C58
:100870009E4FFC012083809133018F5F8093330171
:1008800080913301282F30E080913201882F90E051
:10089000019628173907ACF2109233010EC08091EF
:1008A0003301882F90E08C5C9E4F20E2FC01208376
:1008B000809133018F5F8093330180913301282F22
:1008C00030E080913201882F90E04FE050E0BA0193
:1008D000681B790BCB01281739070CF38091320183
:1008E0008F5F809332017BC0109233011EC08091D4
:1008F0003301882F90E020913201222F30E0A901AE
:100900004F50510920913301222F30E0240F351F21
:100910002C5F3E4FF90120818C5C9E4FFC012083AF
:10092000809133018F5F8093330180913301803157
:10093000F0F2809132018F5F8093320150C01092AB
:1009400033011EC080913301882F90E02091320145
:10095000222F30E0A9014051510920913301222F6B
:1009600030E0240F351F2C5F3E4FF90120818C5C55
:100970009E4FFC012083809133018F5F8093330170
:1009800080913301282F30E080913201882F90E050
:1009900045E350E0BA01681B790BCB0128173907F2
:1009A0008CF2809133018F5F809333010EC0809170
:1009B0003301882F90E08C5C9E4F20E2FC01208365
:1009C000809133018F5F80933301809133018031B7
:1009D00070F3809132018F5F809332010000898132
:1009E0009A810F900F90DF91CF910895CF93DF936D
:1009F00000D0CDB7DEB79A83898389819A81009729
:100A000021F08130910549F005C081E090E09A83A2
:100A1000898304C01A82198201C0000089819A81E9
:100A2000009749F08130910539F464E371E081E089
:100A30000E94810101C0000089819A810F900F906E
:100A4000DF91CF9108950F931F93CF93DF93CDB78D
:100A5000DEB72C970FB6F894DEBF0FBECDBF87E28E
:100A600090E02FEFFC01208388E290E0FC011082EF
:100A70008AE290E02FEFFC0120838BE290E0FC0102
:100A800010820E94080184E491E09A8789878FE4AC
:100A900091E09C878B8782E090E098878F8310920B
:100AA000440181E090E0A0E0B0E0809345019093A4
:100AB0004601A0934701B093480180914501909170
:100AC0004601A0914701B09148018093490190935C
:100AD0004A01A0934B01B0934C0180EC93E09093BA
:100AE0004E0180934D0110924F0181E090E0A0E013
:100AF000B0E08093500190935101A0935201B093C4
:100B000053018091500190915101A0915201B091F7
:100B100053018093540190935501A0935601B093D3
:100B2000570186EF94E0909359018093580181E03A
:100B300090E0A0E0B0E089839A83AB83BC8361E05E
:100B400070E080E090E00E94E7020E9414031E82A1
:100B50001D82C0C08D819E81880F991F9E012F5FCD
:100B60003F4F820F931F0896FC0180819181FC0109
:100B700025813681478150858D819E81880F991FFF
:100B8000BE016F5F7F4F860F971F0896FC01808123
:100B90009181FC0181819281A381B4812817390759
:100BA0004A075B0709F045C08D819E81880F991F18
:100BB0009E012F5F3F4F820F931F0896FC0100811B
:100BC00011818D819E81880F991F9E012F5F3F4F5C
:100BD000820F931F0896FC0180819181FC01218581
:100BE00032858D819E81880F991FAE014F5F5F4FC7
:100BF000840F951F0896FC0180819181FC01808102
:100C0000992787FD9095F9010995F80180838D81D9
:100C10009E81880F991F9E012F5F3F4F820F931F68
:100C20000896FC0180819181FC0115821682178251
:100C300010868D819E81880F991F9E012F5F3F4FE7
:100C4000820F931F0896FC01608171818D819E81C6
:100C5000880F991F9E012F5F3F4F820F931F0896A9
:100C6000FC0180819181FC0125813681478150857D
:100C700089819A81AB81BC81820F931FA41FB51F0C
:100C8000FB0185839683A783B0878D819E81880F22
:100C9000991F9E012F5F3F4F820F931F0896FC0103
:100CA00080819181FC01218132814381548189813C
:100CB0009A81AB81BC81BC01CD010E946700DC013F
:100CC000CB0189839A83AB83BC838D819E810196FE
:100CD0009E838D832D813E818F81988528173907CA
:100CE00008F438CF000080912A018823E1F31092A4
:100CF0002A012DCFA1E21A2EAA1BBB1BFD010DC09C
:100D0000AA1FBB1FEE1FFF1FA217B307E407F507BB
:100D100020F0A21BB30BE40BF50B661F771F881F97
:100D2000991F1A9469F760957095809590959B012D
:0C0D3000AC01BD01CF010895F894FFCF85
:100D3C0001000000435331323042206973204C656E
:100D4C0067656E642E2E2E207761697420666F7233
:0A0D5C0020697420444152592125FA
:00000001FF
